:100000000C9462000C9486020C945F020C948A009B
:100010000C948A000C948A000C948A000C948A0038
:100020000C948A000C948A000C948A000C948A0028
:100030000C948A000C948A000C948A000C948A0018
:100040000C9415020C948A000C94D3020C94AD020B
:100050000C948A000C948A000C948A000C948A00F8
:100060000C948A000C948A000000000023002600F3
:10007000290000000008000201000003040700003E
:1000800000000000000000000000250028002B00F8
:1000900000000000240027002A00040404040404D3
:1000A0000404020202020202030303030303010227
:1000B00004081020408001020408102001020408F6
:1000C0001020BD0311241FBECFEFD8E0DEBFCDBF8F
:1000D00011E0A0E0B1E0EEEEF7E002C005900D9275
:1000E000A831B107D9F721E0A8E1B1E001C01D9224
:1000F000A03CB207E1F710E0C2E6D0E004C02197CF
:10010000FE010E94EA03C136D107C9F70E94050328
:100110000C94F5030C940000CF93DF9390E0FC0166
:10012000E255FF4F2491FC01E656FF4F849188234E
:10013000C1F090E0880F991FFC01E057FF4FC59177
:10014000D491FC01EA57FF4FA591B4919FB7F89461
:100150008881322F309583238883EC91E22BEC93B6
:100160009FBFDF91CF91089590E0FC01EE58FF4FC3
:100170002491FC01E255FF4F3491FC01E656FF4FFC
:10018000E491EE23B9F1222339F1233091F038F4D0
:100190002130A9F0223001F584B58F7D12C02730BF
:1001A00091F02830A1F02430B9F4809180008F7D47
:1001B00003C0809180008F77809380000DC084B54C
:1001C0008F7784BD09C08091B0008F7703C0809184
:1001D000B0008F7D8093B000F0E0EE0FFF1FE85974
:1001E000FF4FA591B491EC91E32381E090E021F4DD
:1001F00080E0089580E090E008950895CF92DF9226
:10020000EF92FF920F931F93CF93DF936C017A01CC
:100210008B01C0E0D0E0CE15DF0581F0D8016D91F3
:100220008D01D601ED91FC910190F081E02DC60188
:100230000995892B11F02196EECF7E01C701DF9140
:10024000CF911F910F91FF90EF90DF90CF90089585
:10025000089580E090E00895FC01538D448D252F92
:1002600030E0842F90E0821B930B541710F0CF9650
:10027000089501970895FC01918D828D981761F082
:10028000828DDF01A80FB11D5D968C91928D9F5FCD
:100290009F73928F90E008958FEF9FEF0895FC0178
:1002A000918D828D981731F0828DE80FF11D858D2B
:1002B00090E008958FEF9FEF0895FC01918D228DBE
:1002C000892F90E0805C9F4F821B91098F73992743
:1002D00008958AE191E00E945D0121E0892B09F4F3
:1002E00020E0822F0895FC01848DDF01A80FB11D4D
:1002F000A35ABF4F2C91848D90E001968F7399275C
:10030000848FA689B7892C93A089B1898C91837039
:1003100080648C93938D848D981306C00288F38932
:10032000E02D80818F7D80830895EF92FF920F935F
:100330001F93CF93DF93EC0181E0888F9B8D8C8D91
:10034000981305C0E889F989808185FD26C0F62EBD
:100350000B8D10E00F5F1F4F0F731127E02E8C8D58
:10036000E8120CC00FB607FCFACFE889F989808142
:1003700085FFF5CFCE010E947301F1CF8B8DFE0179
:10038000E80FF11DE35AFF4FF0829FB7F8940B8FEF
:10039000EA89FB89808180620AC09FB7F894EE8960
:1003A000FF896083E889F989808183708064808314
:1003B0009FBF81E090E0DF91CF911F910F91FF905F
:1003C000EF900895CF93DF93EC01888D8823C9F0D7
:1003D000EA89FB89808185FD05C0A889B9898C914E
:1003E00086FD0FC00FB607FCF5CF808185FFF2CFE9
:1003F000A889B9898C9185FFEDCFCE010E94730148
:10040000E7CFDF91CF91089580E090E0892B29F02C
:100410000E94690181110C940000089563E38AE150
:1004200091E00C9495010E94F0031F920F920FB679
:100430000F9211242F933F938F939F93AF93BF936A
:100440008091BC019091BD01A091BE01B091BF010E
:100450003091BB0123E0230F2D3720F40196A11D1D
:10046000B11D05C026E8230F0296A11DB11D2093E2
:10047000BB018093BC019093BD01A093BE01B093DA
:10048000BF018091B7019091B801A091B901B091DD
:10049000BA010196A11DB11D8093B7019093B801D7
:1004A000A093B901B093BA01BF91AF919F918F9181
:1004B0003F912F910F900FBE0F901F9018951F9294
:1004C0000F920FB60F9211242F933F934F935F9388
:1004D0006F937F938F939F93AF93BF93EF93FF930C
:1004E000E0910201F09103010995FF91EF91BF9115
:1004F000AF919F918F917F916F915F914F913F91BC
:100500002F910F900FBE0F901F9018951F920F9272
:100510000FB60F9211242F933F934F935F936F93D6
:100520007F938F939F93AF93BF93EF93FF93E0914C
:100530000001F09101010995FF91EF91BF91AF91F9
:100540009F918F917F916F915F914F913F912F91EB
:100550000F900FBE0F901F9018951F920F920FB61D
:100560000F9211242F933F934F935F936F937F9339
:100570008F939F93AF93BF93EF93FF938AE191E0A3
:100580000E947301FF91EF91BF91AF919F918F9165
:100590007F916F915F914F913F912F910F900FBE7F
:1005A0000F901F9018951F920F920FB60F92112463
:1005B0002F938F939F93EF93FF93E0912A01F091F4
:1005C0002B018081E0913001F091310182FD12C058
:1005D0009081809133018F5F8F7320913401821756
:1005E00051F0E0913301F0E0E65EFE4F958F80938D
:1005F000330101C08081FF91EF919F918F912F91E5
:100600000F900FBE0F901F901895789484B582605C
:1006100084BD84B5816084BD85B5826085BD85B5A6
:10062000816085BD80916E00816080936E00109224
:10063000810080918100826080938100809181009F
:100640008160809381008091800081608093800030
:100650008091B10084608093B1008091B00081608E
:100660008093B00080917A00846080937A008091BA
:100670007A00826080937A0080917A008160809312
:100680007A0080917A00806880937A001092C1008D
:100690008BE00E948C0082E00E948C008EE092E051
:1006A0009093010180930001809169008C7F809379
:1006B0006900E89AE0912A01F0912B0182E08083A1
:1006C000E0912601F09127011082E0912801F0913C
:1006D00029018FEC808310923201E0912E01F0917C
:1006E0002F0186E08083E0912C01F0912D01808123
:1006F00080618083E0912C01F0912D0180818860E0
:100700008083E0912C01F0912D01808180688083AD
:10071000E0912C01F0912D0180818F7D80838BE011
:100720000E94B400892B31F480910401909105015D
:10073000019779F08BE00E94B4008130910531F48B
:100740002091040130910501232B69F00E940402DD
:10075000E6CF61E38AE191E00E94950110920501E4
:1007600010920401E7CF909305018093040160E3A8
:100770008AE191E00E949501E9CFEAE1F1E013827C
:10078000128288EE93E0A0E0B0E084839583A68394
:10079000B7838AE091E09183808385EC90E0958730
:1007A000848784EC90E09787868780EC90E0918B3B
:1007B000808B81EC90E0938B828B82EC90E0958B28
:1007C000848B86EC90E0978B868B118E128E138E25
:1007D000148E0895EE0FFF1F0590F491E02D0994FB
:0E07E00081E090E0F8940C94F503F894FFCFBC
:1007EE00FD00FD000100000000009501FE002C013F
:0807FE00E2015D013B014F0126
:00000001FF
