:100000000C9462000C948A000C948A000C948A0070
:100010000C948A000C948A000C948A000C948A0038
:100020000C948A000C948A000C948A000C948A0028
:100030000C948A000C948A000C948A000C948A0018
:100040000C9426020C948A000C9496020C94700274
:100050000C948A000C948A000C948A000C948A00F8
:100060000C948A000C948A000000000023002600F3
:10007000290000000008000201000003040700003E
:1000800000000000000000000000250028002B00F8
:1000900000000000240027002A00040404040404D3
:1000A0000404020202020202030303030303010227
:1000B00004081020408001020408102001020408F6
:1000C0001020A60311241FBECFEFD8E0DEBFCDBFA6
:1000D00011E0A0E0B1E0E0ECF7E002C005900D9285
:1000E000AA32B107D9F721E0AAE2B1E001C01D921E
:1000F000A03DB207E1F710E0C2E6D0E004C02197CE
:10010000FE010E94D303C136D107C9F70E94C8027D
:100110000C94DE030C940000CF93DF9390E0FC017D
:10012000E255FF4F2491FC01E656FF4F849188234E
:10013000C1F090E0880F991FFC01E057FF4FC59177
:10014000D491FC01EA57FF4FA591B4919FB7F89461
:100150003881822F809583238883EC91E22BEC9366
:100160009FBFDF91CF910895E0913301F091340169
:100170000190F081E02D682F83E391E00994CF9204
:10018000DF92EF92FF920F931F93CF93DF936C0157
:100190007A018B01C0E0D0E0CE15DF0589F0D801EF
:1001A0006D918D01D601ED91FC910190F081E02DD2
:1001B000C6010995892B11F47E0102C02196ECCF6E
:1001C000C701DF91CF911F910F91FF90EF90DF90CA
:1001D000CF900895089580E090E00895FC01538D3C
:1001E000448D252F30E0842F90E0821B930B541711
:1001F00010F0CF96089501970895FC01918D828D9E
:10020000981761F0828DDF01A80FB11D5D968C916A
:10021000928D9F5F9F73928F90E008958FEF9FEF75
:100220000895FC01918D828D981731F0828DE80F31
:10023000F11D858D90E008958FEF9FEF0895FC01EB
:10024000918D228D892F90E0805C9F4F821B9109B8
:100250008F739927089583E391E00E941F0121E0A5
:10026000892B09F420E0822F0895FC01848DDF01A1
:10027000A80FB11DA35ABF4F2C91848D90E0019619
:100280008F739927848FA689B7892C93A089B18908
:100290008C9180648C93938D848D981306C0028812
:1002A000F389E02D80818F7D80830895EF92FF9206
:1002B0000F931F93CF93DF93EC0181E0888F9B8D89
:1002C0008C8D981305C0E889F989808185FD24C04B
:1002D000F62E0B8D10E00F5F1F4F0F731127E02ECE
:1002E0008C8DE8120CC00FB607FCFACFE889F989AB
:1002F000808185FFF5CFCE010E943501F1CF8B8D36
:10030000FE01E80FF11DE35AFF4FF0820B8FEA89DF
:10031000FB898081806207C0EE89FF896083E8895C
:10032000F98980818064808381E090E0DF91CF91C2
:100330001F910F91FF90EF900895CF93DF93EC0101
:10034000888D8823C9F0EA89FB89808185FD05C0F5
:10035000A889B9898C9186FD0FC00FB607FCF5CF2F
:10036000808185FFF2CFA889B9898C9185FFEDCF77
:10037000CE010E943501E7CFDF91CF91089580E053
:1003800090E0892B29F00E942B0181110C94000030
:10039000089590E0FC01EE58FF4F2491FC01E255D6
:1003A000FF4F3491FC01E656FF4FE491EE23B9F183
:1003B000222339F1233091F038F42130A9F0223092
:1003C00001F584B58F7D12C0273091F02830A1F05F
:1003D0002430B9F4809180008F7D03C0809180002B
:1003E0008F77809380000DC084B58F7784BD09C05E
:1003F0008091B0008F7703C08091B0008F7D809393
:10040000B000F0E0EE0FFF1FE859FF4FA591B49147
:10041000EC913E2381E090E021F480E0089580E0BB
:1004200090E00895009769F0FC0101900020E9F741
:100430003197AF01481B590BBC0183E391E00C9449
:10044000BF0080E090E008950E94D9031F920F92B0
:100450000FB60F9211242F933F938F939F93AF93D7
:10046000BF9380912F0190913001A0913101B09103
:10047000320130912E0123E0230F2D3720F4019615
:10048000A11DB11D05C026E8230F0296A11DB11DB7
:1004900020932E0180932F0190933001A09331017E
:1004A000B093320180912A0190912B01A0912C01EF
:1004B000B0912D010196A11DB11D80932A01909349
:1004C0002B01A0932C01B0932D01BF91AF919F916F
:1004D0008F913F912F910F900FBE0F901F90189505
:1004E0001F920F920FB60F9211242F933F934F93A9
:1004F0005F936F937F938F939F93AF93BF93EF938C
:10050000FF9383E391E00E943501FF91EF91BF914A
:10051000AF919F918F917F916F915F914F913F919B
:100520002F910F900FBE0F901F9018951F920F9252
:100530000FB60F9211242F938F939F93EF93FF93F6
:10054000E0914301F09144018081E0914901F091F3
:100550004A0182FD12C0908180914C018F5F8F73A0
:1005600020914D01821751F0E0914C01F0E0ED5CDB
:10057000FE4F958F80934C0101C08081FF91EF91D8
:100580009F918F912F910F900FBE0F901F901895F4
:10059000789484B5826084BD84B5816084BD85B55E
:1005A000826085BD85B5816085BD80916E0081606A
:1005B00080936E0010928100809181008260809310
:1005C0008100809181008160809381008091800012
:1005D0008160809380008091B10084608093B1003D
:1005E0008091B00081608093B00080917A00846037
:1005F00080937A0080917A00826080937A00809163
:100600007A00816080937A0080917A00806880937C
:100610007A001092C100E0914301F091440182E020
:100620008083E0913F01F09140011082E09141010F
:10063000F09142018FEC808310924B01E0914701D1
:10064000F091480186E08083E0914501F0914601F8
:10065000808180618083E0914501F0914601808135
:1006600088608083E0914501F09146018081806837
:100670008083E0914501F091460180818F7D8083E8
:100680008EE00E948C008FE00E948C0080E10E942E
:100690008C0081E10E948C0082E10E948C0083E149
:1006A0000E948C0083E391E00E941F01892B09F4D2
:1006B0004AC083E391E00E94FD00C82F813391F48A
:1006C00083E10E94C901892B19F482E191E007C0FE
:1006D00082E10E94C901892B99F78BE191E00E9488
:1006E00012021FC08233E9F48EE00E94C901892BF7
:1006F00011F481E314C08FE00E94C901892B11F429
:1007000082E30DC080E10E94C901892B11F483E3CB
:1007100006C081E10E94C901892B31F784E30E9460
:10072000B40083E391E00E941F01892B29F083E349
:1007300091E00E94FD00F5CFC153C23020F084E269
:1007400091E00E9412020E94BF01ACCFE3E3F1E00E
:100750001382128288EE93E0A0E0B0E08483958358
:10076000A683B78384E091E09183808385EC90E059
:100770009587848784EC90E09787868780EC90E06B
:10078000918B808B81EC90E0938B828B82EC90E05C
:10079000958B848B86EC90E0978B868B118E128ED6
:1007A000138E148E0895EE0FFF1F0590F491E02D27
:1007B000099481E090E0F8940C94DE03F894FFCF64
:1007C000000000005601BF00EE009D011F01FD006A
:1007D00011016872616331303031006872616332D7
:0A07E000303031004552524F5200F4
:00000001FF
